:100000000C9418030C9435030C9435030C943503AD
:100010000C9435030C9435030C9435030C94350380
:100020000C9435030C9435030C94A1320C94793361
:100030000C9456320C9435030C9435030C94350310
:100040000C9435030C9435030C9435030C94350350
:100050000C9435030C947D320C9435030C943503C9
:100060000C9435030C9435030C9435030C94350330
:100070000C9435030C9435030C9435030C94350320
:100080000C9435030C9435030C9435030C94350310
:100090000C9435030C9435030C9435030C94350300
:1000A0000C9435030C9435030C94350305010902B7
:1000B000A10185020901A1000509190129081500FE
:1000C0002501950875018102050109300931158165
:1000D000257F95027508810609381581257F9501D0
:1000E00075088106050C0A38021581257F95017572
:1000F000088106C0C005010980A101850319012AF4
:10010000B700150126B700950175108100C0050CD8
:100110000901A101850419012AA002150126A002E6
:10012000950175108100C005010906A1018506052C
:100130000719E029E71500250195087501810205D9
:1001400007190029EF1500250195F07501810205B9
:10015000081901290595057501910295017503910D
:1001600001C00660FF0961A1010962150026FF00B8
:100170009520750881020963150026FF00952075FA
:10018000089102C005010906A101050719E029E748
:1001900015002501950875018102950175088101F9
:1001A0000507190029FF150026FF0095067508812F
:1001B000000508190129051500250195057501910E
:1001C00002950175039101C00000000000000000CD
:1001D000000000000000000000000000000000001F
:1001E0000000000000000000000000007E0F00D4AE
:1001F000FFFFFFC7000000780000000000000000C3
:100200002A2B280000000000000000000000000071
:1002100000000029000000002C1E3420212224347C
:100220002627252E362D3738271E1F20212223244E
:1002300025263333362E37381F0405060708090AEA
:100240000B0C0D0E0F101112131415161718191A86
:100250001B1C1D2F3130232D350405060708090A04
:100260000B0C0D0E0F101112131415161718191A66
:100270001B1C1D2F3130354C09025B00030100A00F
:10028000FA09040000010301010009211101000124
:10029000224400070581030800010904010002034C
:1002A000000000092111010001222200070582033C
:1002B00020000107050303200001090402000103D7
:1002C00000000009211101000122B6000705840386
:1002D0002000011201000200000008EDFE000000F5
:1002E00001010203011C037600690061006C003A01
:1002F00000660036003400630032006200330063A1
:100300000000001C036500720067006F005F00685A
:100310000061006E006400770069007200650000F3
:10032000000C0365006C00690073007A0000000493
:1003300003090414001A000800150017001C001817
:10034000000C001200130004001600070009000A48
:10035000000B000D000E000F00100029412A001DA7
:10036000001B0006001900050011002800E600012E
:10037000000100E1002C00E000E4002C00E5000199
:100380000001001E001F0020002100220023002485
:100390000025002600270035420000390052002BBE
:1003A000003300340031002F0030000000E3005023
:1003B0000051004F003600370038002D002E00019C
:1003C000000100E1002C00E000E4002C00E5000149
:1003D0000001003A003B003C003D003E003F004071
:1003E0000041004200430000000000460047004872
:1003F0000049004A004B0044004500000000000096
:1004000000000000004C004D004E000000E2000122
:10041000000100E1002C00E000E4002C00E50001F8
:100420000001000100010010059817AE170000023E
:100430000002000C059817AE170000030001001120
:10044000059817AE17000004000200F6049817AED6
:1004500017C1060500010012059817AE1700000627
:10046000000200F8049817AE170000070002000E03
:10047000059817AE1700000800010013059817AE85
:1004800017000009000200FA049817AE17CA060AFE
:10049000000200FC049817AE17CA060B000200FE0B
:1004A000049817AE17CA060C00020000059817AE94
:1004B00017CA060D00020002059817AE17CA060EED
:1004C00000020004059817AE17CA060F00020006C6
:1004D000059817AE17CA061000020008059817AE57
:1004E00017CA06110002000A059817AE17CA0612AD
:1004F00000020014059817AE170000130002001642
:10050000059817AE1700001400010018059817AEE3
:10051000170000150000000000EF069C100000FD11
:10052000377A585A000004E6D6B446020021011674
:10053000000000742FE5A3E002BF00CE5D003D88FF
:1005400089A654750A36E182AEFA7A1AA6FCA2EDA3
:100550004951391A5E7177BBD0558A5F04BCAA64D1
:100560007EE5D3B49857C974860BD13C57B902477E
:1005700071542831D5914F1F7B05DB73610B8CA023
:100580002E94B59C8626E6430CC00E3D5631EE4BAC
:10059000B4070996F9F494960C38B0807C8E3D250A
:1005A00084086D0114C5C20D9AAACFA3DD36CCEC28
:1005B0000E0BF6B6A8A64579BF41C1F684AA66918E
:1005C000F66E5CA3850C75AC56580351C96B7FD48D
:1005D0000F84C5C50F96ECB32A9357DED73575AC9B
:1005E000D83D51E19136971B8C05D843B110D0EF1F
:1005F00038195702B51D8133230F48F057890EB0C3
:10060000DBD2B0EBDFFE535EDAE4020000000079DB
:100610002D8F4B4837756D0001EA01C0050000645D
:10062000E96C39B1C467FB020000000004595A00AC
:1006300011241FBECFEFDAE0DEBFCDBF11E0A0E096
:10064000B1E0E2E7FAE602C005900D92A837B107E3
:10065000D9F725E0A8E7B1E001C01D92AE31B2079D
:10066000E1F70E946B2A0C94BE340C9400009C01AC
:100670009A9581159F4118F5F901EE27F270832FA5
:100680008170B90166277470A9014427587034FF3E
:100690000CC08295807FEF2B09F08062672B09F0F8
:1006A0008064452B69F080680895EF2B09F0826023
:1006B000672B09F08460452B19F08860089580E06D
:1006C0000895CF93DF93EB010E943703FE01099554
:1006D000DF91CF910895282F92959F70963091F0D9
:1006E00060F4925F9F70923030F481E0203F79F0A7
:1006F00030F4283E30F080E008959A5FF3CF243F35
:10070000D1F7089581E0283EE0F3213FF9CF089525
:100710008093F40408958093F504089521E030E077
:1007200001C0220F8A95EAF78091F504822B0E947E
:100730008B03089521E030E0A90102C0440F551F4A
:100740008A95E2F7CA0180959091F50489230E9469
:100750008B030895292F943098F58A3088F590E01E
:100760003AE0239F800D911D1124282F277041E02E
:1007700001C0440F2A95EAF723E0969587952A95BC
:10078000E1F7FC01EE0FFF1FE80FF91FE658FC4FE1
:1007900020E030E070E05191DF011197CB01022E93
:1007A00002C0969587950A94E2F781708195852716
:1007B000842385278C932F5F3F4F2330310559F7D2
:1007C0000895292F943078F58A3068F590E03AE062
:1007D000239F800D911D1124682F677023E096954B
:1007E00087952A95E1F7FC01EE0FFF1FE80FF91F2F
:1007F000E658FC4F40E050E080E0219130E0062ECA
:1008000002C0369527950A94E2F721703327042E0B
:1008100001C0220F0A94EAF7822B4F5F5F4F4330EB
:10082000510559F7089580E008959091F50421E06D
:1008300030E0F90101C0EE0F8A95EAF7D90102C054
:10084000AA0FBB1F6A95E2F7EA2B01C0220F4A9557
:10085000EAF7892F8E23E81305C0892F822B0E9487
:100860008B0308952095822F8923F9CF8091280347
:1008700090912703981301C008958F5F8770FACF76
:10088000909142048095892380934204282F2770F9
:10089000211111C0891779F090911B0592FF0BC0AF
:1008A0008695869586950E949A031092420410922E
:1008B000440410924304089590913F04982B909320
:1008C0003F040895982F909580913F048923809349
:1008D0003F04089580913E04882331F010923E0435
:1008E00010923D0410923C040895803E9105D1F190
:1008F000C8F48133910509F47FC048F48932910529
:1009000009F46FC08A32910509F47DC008958933D6
:100910009105E1F082389105C9F08533910509F41C
:100920005BC00895843E9105D1F148F4823E910563
:1009300031F1833E910541F181EE90E00895863ECC
:100940009105C1F1873E9105E1F1089520911A05C5
:100950002370211165C020911B0523FF14C089E27B
:1009600090E0089520911A0520FD43C030911B05A9
:1009700030FF09C024FF4EC080E090E00895209130
:100980001A0522FDF7CF089520911A0522FD45C0D2
:1009900030911B0530FD44C024FFF5CFEDCF2091F1
:1009A0001B0521FFF0CF80911A0584FDE5CF87EE6E
:1009B00090E0089520911A0523FFE5CF24FDDCCFB8
:1009C000F6CF20911A0523FD2EC030911B0531FF73
:1009D000E3CF84EE90E0089520911A0525FFD3CF50
:1009E000BECF20911A0525FD21C020911B0523FFB4
:1009F000CACF89E390E0089520911A0526FFC3CF5E
:100A00008AE290E0089520911A0526FFBCCF81E389
:100A100090E0089583EE90E0089582EE90E00895CE
:100A200080EE90E0089586EE90E0089585E390E0F2
:100A3000AACF90911A0592FF10C041E0282F24718F
:100A4000243009F040E031E0282F2871283009F0E7
:100A500030E0431711F02CE0822793FF10C041E0F3
:100A6000282F2471243109F040E031E0282F28712B
:100A7000283109F030E0431711F02CE08227309143
:100A80001B0530FF10C051E0282F2171213009F0E3
:100A900050E041E0282F2871283009F040E0541739
:100AA00011F029E0822731FF10C041E0282F217189
:100AB000213109F040E031E0282F2871283109F078
:100AC00030E0431711F029E0822794FD877E0895D6
:100AD0001F93CF93DF930E947504EC01811522E5EB
:100AE000920708F053C0811540E5940708F0DDC077
:100AF000803E9105F8F48D3C910508F0AEC0883A2F
:100B0000910580F4853A910508F099C081309105EE
:100B100021F00497813A910550F4CE01DF91CF91F5
:100B20001F910895885A91094B9708F48BC0C0E033
:100B3000D0E0F3CF811550E49507F8F4C11580E2B9
:100B4000D80708F0CBC0C83ED10538F3CE019A953E
:100B500081159F4160F78D2F0E941905182FCE0136
:100B600099270E947504212F30E0322F2227E901B6
:100B7000CC27DF71C82BD92BD0CF99270E947504C1
:100B8000CC27DF70C82BD92BD06AC7CF803842E57D
:100B90009407C8F5803652E5950708F067C0C03461
:100BA00082E5D807B0F08C2F86958695877020E275
:100BB000829FC0011124C37021E030E0A90102C06E
:100BC000440F551FCA95E2F7EA01C82BD92BDC6800
:100BD000A4CFC03252E5D50708F041C08C2F8695CE
:100BE000869520E2829FC0011124C37021E030E08D
:100BF000A90102C0440F551FCA95E2F7EA01C82BAC
:100C0000D92BDD688ACF803C52E5950760F48F715F
:100C1000C03AD24508F03FC090E0982F8827EC01F9
:100C2000C46FD06A7ACF805C9245809708F07FCFFE
:100C3000DC2FCC27CC27DF71C06FD06A6ECFA49792
:100C4000D0646BCFC85AD0E0CC0FDD1FCE5BDE4F37
:100C50000990D881C02DD46460CFD0655ECFCF71AC
:100C6000D0E0DC2FCC27C16FD06A57CF8695869510
:100C7000877020E2829FC0011124C37021E030E020
:100C8000A90102C0440F551FCA95E2F7EA01C82B1B
:100C9000D92BDA6842CF0E941905C82FD0E0DC2F8B
:100CA000CC27CC27DF71D06238CF8F710E94190515
:100CB00065E0D695C7956A95E1F7CF70D0E0DC2F57
:100CC000CC27282F30E084FF05C054E0220F331FCB
:100CD0005A95E1F7C22BD32BD0691FCF8D2F8F717F
:100CE0000E941905182FCE0199270E947504212F03
:100CF00030E0322F222722273F71282B392BE901A0
:100D0000D2CF80E00895F894E82FE295EF70F0E0FC
:100D100041A18F7021E030E0B90102C0660F771F5A
:100D20008A95E2F7CB01962F9095942391A392A1F7
:100D3000892B82A37894089581152CE7920741F4BA
:100D40002091F4023091F502232B11F480E090E021
:100D50000895EDEAF3E080E090E06BE779E242EAA3
:100D600059E227E13AE277836683518740873387E8
:100D7000228797878687019670968830910599F724
:100D800008958091F6049091F70490930F01809359
:100D90000E010895E6EFF4E0848195812AE030E0C9
:100DA000B9010E94C23360931201868180931301BE
:100DB00082858093030184858093020186859785CF
:100DC000B9010E94C23360931001808980931101A0
:100DD0008289809301018489809300010895A0E0B5
:100DE000B0E0E5EFF6E00C94FD33FB018FEF9FEFF1
:100DF0004430510508F465C040911A0541FB88272D
:100E000080F990E0880F991F42FBAA24A0F8B12C2A
:100E1000AA0CBB1CAA0CBB1C8A299B2940FB88245A
:100E200080F8912C8829992943FBCC24C0F8D12C37
:100E300053E0CC0CDD1C5A95E1F78C299D2944FB2D
:100E4000EE24E0F8F12C64E0EE0CFF1C6A95E1F76B
:100E50008E299F2945FB002700F910E075E0000F5F
:100E6000111F7A95E1F7802B912B46FB222720F961
:100E7000C22F20E0D22FA6E0CC0FDD1FAA95E1F70C
:100E80008C2B9D2B47FB442740F920E8429FA00173
:100E90001124842B952B20911B05322F3170932B1D
:100EA00026952170B22FBB0FA0E08A2B9B2B092E19
:100EB000000CAA0BBB0B80839183A283B38380E0D9
:100EC00090E0CDB7DEB7ECE00C941934AC0123E030
:100ED000969587952A95E1F78E719927FC01EF5336
:100EE000FE4F0190F081E02D4F70552721E030E05A
:100EF00002C0220F331F4A95E2F7662341F0E22B2E
:100F0000F32B8F539E4FDC01ED93FC9308952095B6
:100F10003095E223F323F5CF1092860410928504D6
:100F2000E5E4F4E08581811102C0148216823796CF
:100F300084E0ED37F807B1F70895AC0130918804EB
:100F400060918704232F621301C00895822F90E0DF
:100F5000FC01EE0FFF1FE358FB4F0190F081E02DE5
:100F6000E417F50791F467E0649FF001659FF00DC9
:100F70001124EB5BFB4F41E044832313E6CF019642
:100F8000837099278093880408950196282F2370F1
:100F9000DACFFC018481862381110AC082818823F3
:100FA000B9F06823908593FF05C081E061110FC0FF
:100FB00080E00895282F22952F708F70282B962F70
:100FC00092959F706F70962B81E02913F1CF089551
:100FD00081E0FDCF282F35EB2303C001112497FFBB
:100FE00004C080589109892F089580589F4FFBCFE6
:100FF00080918B036091FE047091FF0480FF16C006
:1010000020910301269FC001279F900D1124BC0150
:1010100076956795769567956038710508F044C0B8
:101020006115710509F442C0862F089581FF0BC038
:1010300020910301269FC001279F900D1124BC0120
:1010400076956795E9CF82FF09C0809103019B01E6
:10105000829FB001839F700D1124DECF80918A039F
:101060008823D1F2909102012091030130E0891789
:1010700048F0CB01829FB001839F700D929F700D4D
:101080001124CACF829FA001839F500D1124469F37
:101090009001479F300D569F300D1124692F70E04D
:1010A000C9010E94C233B8CF8FE7089581E0089547
:1010B00080918B0380FF0CC06091010170E07595F9
:1010C0006795759567956115710561F1862F08958E
:1010D00081FF06C06091010170E075956795F3CFBF
:1010E0006091010170E082FD15C0209189032223E7
:1010F000B1F0909100016091010170E0291750F466
:10110000269FA001279F500D1124692F70E0CA016E
:101110000E94D63360387105B0F28FE7089561E020
:1011200070E0D4CF81E00895FA01309709F0099575
:101130000895E0911D03F0911E03309729F001906E
:10114000F081E02D0995089580E00895A3E0B0E0D6
:10115000ECEAF8E00C9407349C018091BE01909178
:10116000BF0182179307A1F03093BF012093BE0106
:10117000E0911D03F0911E03309751F083E08983C5
:101180003B832A830084F185E02DCE0101960995E9
:101190002396E2E00C942334A3E0B0E0E2EDF8E023
:1011A0000C9407349C018091BC019091BD01821781
:1011B0009307A1F03093BD012093BC01E0911D0382
:1011C000F0911E03309751F084E089833B832A839A
:1011D0000084F185E02DCE01019609952396E2E089
:1011E0000C942334909114019923C1F090911A0525
:1011F00097FF14C0E82FE695E695E695803FF8F452
:10120000F0E0EE57FE4F877021E030E001C0220F82
:101210008A95EAF78281822B82830895ACE7B1E058
:10122000EFEF90E02D91821751F0EF3F19F421116B
:1012300001C0E92F9F5F9630A9F7EF3F09F40895A9
:101240000E2E000CFF0BE658FE4FE6CF90911401D6
:101250009923E1F090911A0597FF18C0E82FE695C1
:10126000E695E695803FF0F4F0E0EE57FE4F87708C
:1012700021E030E0A90102C0440F551F8A95E2F732
:10128000CA0180959281892382830895ECE7F1E079
:101290009191891303C0DF0111971C9251E0E2384C
:1012A000F507B1F708952FB7F8948091D702909180
:1012B000D802A091D902B091DA022FBF089580918F
:1012C000F8049091F904892B91F00E945309209120
:1012D0003C0430913D04AC01421B530B9A0181E068
:1012E0004091F8045091F9042417350708F480E080
:1012F00081700895CF93DF93C0913F0480914104A2
:10130000C82B80913E04882329F18091F8049091A4
:10131000F904892B29F00E945F0981110E946A0457
:10132000D0913E04809114018823F1F080911A0538
:1013300087FF1AC024E831E08DE190E0F901408197
:101340002F5F3F4F41119F5F8150C0F791110E9465
:101350006A04CD2B80919D0380958C2390919C03F2
:10136000892BDF91CF9108952CE731E085E0E5CF1F
:1013700090911B0592FF10C098E0899F9001112465
:10138000622B609342040E948E030E945309909343
:1013900044048093430408950E948E03089590911D
:1013A0003E04292F2823222361F0809589238093EE
:1013B0003E04882339F00E94530980933C049093A3
:1013C0003D04089580E090E0F8CFCF93C82F80913E
:1013D0001B0582FF0CC080913E048C1741F00E94D7
:1013E000530990933D0480933C04C0933E04CF91F5
:1013F00008950E94530920918E0330918F03232B6F
:10140000222321F08093E5029093E602209190033D
:1014100030919103232B222321F08093E3029093B8
:10142000E402E0911D03F0911E03309749F082E041
:1014300080938C030680F781E02D8CE893E009957A
:10144000089520918E03909191033091900366232B
:1014500009F45AC040918F03242B292B232B2223DC
:1014600031F098E090938A0391E0909389038D3C4A
:1014700041F40E94F807819580938F030E94F90937
:101480000895E2E3E80FE231C8F7F0E0E054FB4CE6
:101490000C94EA330E94F807EFCF0E94F807819579
:1014A00080938E03EBCF0E94F807FACF0E94580872
:1014B00080939003E3CF0E9458088195F9CF0E9452
:1014C0005808819580939103D9CF0E945808FACF8C
:1014D000815D990B21E030E001C0220F8A95EAF787
:1014E00080918D03822B80938D03C8CF80918B03D5
:1014F000816080938B03C2CF80918B038260F9CF90
:1015000080918B038460F5CF8D3C59F480918F03DB
:1015100087FF0DC010928F03222359F410928A0383
:1015200008C08E3C81F480918F0318169CF322230F
:1015300081F08091900390919103892B81119ECF2E
:10154000109289039BCF8F3C41F427FFF0CF10927C
:101550008E0380918F038823E0CF803D19F412160B
:10156000B4F3E5CF893D29F413160CF710929003DC
:10157000DECF8A3D19F437FFDACFF8CF8B3D29F45F
:1015800097FFD5CF10929103D2CF8C3D19F4191645
:10159000CCF3CDCF9FE2980F983090F4815D990BFA
:1015A00041E050E0BA0102C0660F771F8A95E2F76A
:1015B000CB01809590918D03892380938D03B7CFC4
:1015C0008D3D31F480918B038E7F80938B03AFCF61
:1015D0008E3D21F480918B038D7FF7CF8F3D09F0F5
:1015E000A6CF80918B038B7FF0CFA4E0B0E0EBEF30
:1015F000FAE00C9407348FB7F8942091D702309119
:10160000D8024091D9025091DA0229833A834B8360
:101610005C838FBF69817A818B819C812496E2E013
:101620000C9423340F931F93CF93DF93D82FC92F9C
:101630004091A3035091A4036091A5037091A60368
:101640002FB7F8948091D7029091D802A091D90237
:10165000B091DA022FBF841B950BA60BB70B843F0A
:101660009140A105B10528F56091A3037091A403F1
:101670008091A5039091A60304EF11E020E030E0F3
:101680006093DF027093E0028093E1029093E202A4
:101690000093DB021093DC022093DD023093DE0224
:1016A000D093A103C093A203DF91CF911F910F911B
:1016B00008950E94F50A02E310E020E030E0E0CF58
:1016C0009C014FB7F8948091D7029091D802A091D5
:1016D000D902B091DA024FBF821B930B089587E7BE
:1016E00097E7909301088093000888E19AE00FB68D
:1016F000F894A895809360000FBE90936000FFCF90
:101700008091BB010895FC019B018091B1019091F2
:10171000B2018617970740F0672B29F48091E80003
:101720008E778093E800C90140E0009741F44111B1
:1017300006C08091E80082FF2FC080E008952091CC
:10174000F6022223A9F12530A9F12091E80023FD1A
:101750002DC02091E80022FDECCF2091E80020FF71
:10176000E4CF3091F3002091F200009719F0283077
:10177000310558F041E02830310509F040E0209172
:10178000E8002E772093E800D0CF41914093F100FC
:1017900001972F5F3F4FE9CF8091F602882341F0F8
:1017A000853041F08091E80083FFC3CF81E0089548
:1017B00082E0089583E008958091AB0187FF13C014
:1017C0008091E80082FF06C08091E8008B778093CB
:1017D000E80004C08091F6028111F2CF0895809153
:1017E000F6028823D9F38091E80080FFF8CF80913A
:1017F000E8008E77ECCF2091E4003091E50095E68B
:10180000A9018091EC008170882331F08091E8007B
:1018100080FF06C080E008952091E80022FD1BC0F3
:101820008091F602882391F0853091F08091EB0051
:1018300085FD10C02091E4003091E5004217530768
:1018400001F391509111DCCF84E0089582E0089576
:1018500083E0089581E00895E8EDF0E080818E7FD7
:1018600080831092E2001092DA001092E100A0EE64
:10187000B0E08C9181608C9380818F77808319BCDC
:10188000A7EDB0E08C918E7F8C9380818F7E8083DA
:101890001092AA010895982FE42FE2709093E90026
:1018A000891308C0762F242F50E0E11111C091E078
:1018B000980FF4CF7091EC002091ED005091F00062
:1018C00021FD06C09F5F973049F78093E900089596
:1018D0003091EB003E7F3093EB003091ED003D7F87
:1018E0003093ED003091EB0031603093EB0070935A
:1018F000EC002093ED005093F0002091EE0027FDC6
:10190000E1CF0895A0E0B0E0E8E8FCE00C940134F9
:10191000C8EDD0E088818F7E8883E7EDF0E080819C
:101920008160808384E082BF81E08093AA01888106
:101930008E7F888302EE10E0F80110821092DA00A8
:1019400081EEC82ED12CF601108288818F77888392
:1019500088818068888388818F7D888319BC1092F4
:10196000F6021092A9011092CD021092A80190EEF9
:10197000E92EF12CF70180818B7F80838881816043
:10198000888342E060E080E00E944B0CF601808199
:101990008E7F8083F8018081816080838081886070
:1019A0008083F70180818E7F808388818061888336
:1019B000CDB7DEB7E8E00C941D349C01211531054C
:1019C00009F408958FE99FE00197F1F700C0000046
:1019D00021503109F3CF0F931F93CF93DF93EB0186
:1019E0008A019091F602943079F58093E9008FEFA7
:1019F0009091E80095FD07C095ED9A95F1F70000EC
:101A000081508111F5CF8091E80085FF1DC00E94B3
:101A1000FB0B811114C08091E80085FD06C0809108
:101A2000E8008E778093E800F2CF88818093F10000
:101A3000015011090115110511F02196ECCF80918B
:101A4000E8008E778093E800DF91CF911F910F918E
:101A50000895CF93DF93D82FC92F48E050E0682F27
:101A6000792F81E00E94EB0C88E0ED2FFC2FA3EB97
:101A7000B1E001900D928A95E1F7DF91CF91089541
:101A8000BC0140E250E084E00E94EB0C0895BC01F0
:101A900046E050E084E00E94EB0C0895BC0143E076
:101AA00050E084E00E94EB0C089590911B0592FB9E
:101AB000222720F9281779F080FB92F990931B05D3
:101AC00060911A0570911B0584E090E00E94A0349B
:101AD00082E00E94400408951F93CF93DF93962FD6
:101AE000122F632F282F292B2430C8F44A30B8F442
:101AF000C42FD0E0CC0FDD1F24E1929FC00DD11D7B
:101B0000112490E5899FC00DD11D1124CE01899625
:101B10000E948234612FCE018A960E948234DF9126
:101B2000CF911F910895CF93DF93CDE7D2E060E08E
:101B3000CE010E9482342196C11584E0D807B9F7FE
:101B4000DF91CF910895882381F06AE585E290E0E6
:101B50000E9482346FE486E290E00E94823463EB5C
:101B600087E290E00E94823408956FEF85E290E072
:101B70000E9482346FEF86E290E00E9482346FEF21
:101B8000EFCF0F931F93CF93DF9306EF14E0C9E6D7
:101B9000D1E0CE010E946434F80161918F01861773
:101BA00019F0CE010E9482342196CD38F1E0DF0792
:101BB00081F7DF91CF911F910F9108950F931F939C
:101BC000CF93DF9306EF14E0C9E6D1E0CE010E9487
:101BD0006434F80181938F012196CD38F1E0DF075D
:101BE000A9F7CDE2D4E0FE0185919491009711F020
:101BF000FC0109952C96F5E0C932DF07A1F7DF91CA
:101C0000CF911F910F9108950F931F93CF93DF935F
:101C1000982F962B943020F54A3010F5C42FD0E041
:101C2000CC0FDD1F24E1629FC00DD11D112430E5D2
:101C3000839FC00DD11D1124CE0189960E9464346A
:101C4000082F10E0102F0027CE018A960E946434DE
:101C50009801282BC901DF91CF911F910F91089511
:101C600080E090E0F8CF462F672F2091F902309165
:101C7000FA02232B91F4703F39F4403F71F48091C4
:101C8000F7029091F8020895982F972B943028F43A
:101C90004A3018F40E94040E089580E090E0089500
:101CA000A0E0B0E0E6E5FEE00C9402347C01009197
:101CB000F5048091F404082BC3E0D0E010E0C801E3
:101CC0000C2E02C0959587950A94E2F780FD09C015
:101CD0002197A8F7D12C8D2DCDB7DEB7E7E00C9476
:101CE0001E34DC2EB7018C2F0E94330E0E94680533
:101CF000019771F3F0CFCF93DF93D82FC92F0E94B4
:101D0000500E6D2F7C2F0E94330E0E946805DF91CC
:101D1000CF910895FC018481882371F0878190859B
:101D2000009729F00E9468050E946B030895808146
:101D300091810E947B0EF8CF80E008951F93CF938E
:101D4000DF93182FD92F662399F0442389F00E943E
:101D5000500EC82F682F812F9D2F0E94AA03612F3C
:101D60007D2F8C2F0E94330EDF91CF911F9108950C
:101D70000E94E103C82FF3CFFC01462F8781908595
:101D8000009729F46581808191810E949E0E0895BB
:101D900085E290E00E9464348A3589F486E290E01E
:101DA0000E9464348F3459F487E290E00E946434D6
:101DB00091E0833B09F090E0892F8170089580E0E5
:101DC000FCCF80911401882359F180911A0587FF77
:101DD00027C00E947A098093830140E250E06DEFB2
:101DE00072E082E891E00E943734892BC1F080E2F2
:101DF000E2E8F1E0ADEFB2E001900D928A95E1F7F3
:101E0000E0911D03F0911E03309749F086E0809326
:101E100082010480F581E02D82E891E00995089522
:101E20000E947A0980937A0148E050E06FE173E004
:101E30008AE791E00E943734892B89F388E0EAE74A
:101E4000F1E0AFE1B3E001900D928A95E1F7E09106
:101E50001D03F0911E03309711F30280F381E02DF2
:101E60008AE791E0DBCF882321F00E945C040E9486
:101E7000E10E0895882339F090914104892B8093D5
:101E800041040E94E10E0895882321F00E9462041B
:101E90000E94E10E0895882341F0809590914104BD
:101EA0008923809341040E94E10E0895CF93C82FA7
:101EB0008823B1F18CEF8C0F813AA0F58091140149
:101EC000882301F180911A0587FF1CC0EC2FE6954D
:101ED000E695E695F0E0EE57FE4F828190E04C2FBC
:101EE000477021E030E002C0220F331F4A95E2F72D
:101EF00082239323892B79F08C2F0E9426090E943C
:101F0000E10E09C0ECE7F1E08191C817A9F321E0E7
:101F1000E238F207C9F78C2F0E94F2080E94E10E06
:101F2000CF91089580E28C0F883048F4C77081E02B
:101F300001C0880FCA95EAF70E945C04EFCF8BE5D9
:101F40008C0F833038F42C2F2452330BC9010E949C
:101F5000A608E6CFE8E5EC0FEB3150F4F0E0EE0F29
:101F6000FF1FEE5BFE4F808191810E94CC08D8CF8D
:101F700083E38C0F8331A0F661E08C2F0E94210A4D
:101F8000CFCFCF93DF93EC01805E9109089720F0CB
:101F90006AE37FE0209711F463E37FE0CE010E94C3
:101FA00061038C2F0E94560FDF91CF910895662315
:101FB00029F0209141042260209341049C01305279
:101FC0002115304308F499270E94C10F08958823F2
:101FD00081F19CEF980F913A28F40E9426090E9403
:101FE000E10E089590E2980F983050F4877091E0D8
:101FF00001C0990F8A95EAF7892F0E946204EFCFFA
:102000009BE5980F933028F480E090E00E94A608AA
:10201000089598E5980F9B3128F480E090E00E94A5
:10202000CC08089593E3980F933118F460E00E9470
:10203000210A0895CF93DF93EC010E94E70FCE01B0
:10204000805E9109089720F06BE47FE0209711F4FF
:1020500064E47FE0CE010E946103DF91CF91089597
:102060001F93CF93DF93182FEB010E94560F2097F9
:1020700039F4812F0E94E70FDF91CF911F910895CE
:102080008FE99FE00197F1F700C000002197EFCFA3
:102090006091160570911705893321F06091140540
:1020A000709115050E943010089510923F048091A0
:1020B0001401882339F180911A0587FF23C0E4E8D1
:1020C000F1E08EE1DF011D928A95E9F780E090E072
:1020D0000E94A60880E090E00E94CC081092410483
:1020E0000E94E10E86E0ECE8F3E0DF011D928A95A4
:1020F000E9F710928A031092890310928B030E94D1
:10210000F9090895ECE7F1E086E0DCCF0E94551074
:102110002FEF84E39CE0215080409040E1F700C025
:10212000000088E19AE00FB6F894A89580936000CB
:102130000FBE90936000FFCFCF92DF92EF92FF929D
:10214000FB018FEF9FEF4430510508F481C0C08040
:10215000D180E280F3800E945510D701C601B69568
:10216000A795979587958170282F220FD701C601D3
:1021700081709927AA27BB27822BB701A60132E0DD
:1021800076956795579547953A95D1F74170440FE5
:10219000440F842BB701A601E3E076956795579528
:1021A0004795EA95D1F74170440F440F440F842BB3
:1021B000B701A601F4E07695679557954795FA958E
:1021C000D1F741704295407F842BB701A601A5E06D
:1021D0007695679557954795AA95D1F741704295A1
:1021E000440F407E842BB701A601B6E07695679533
:1021F00057954795BA95D1F741704295440F440FD2
:10220000407C842BB701A60197E07695679557959A
:1022100047959A95D1F7479544274795842B809306
:102220001A05D1FA882780F9880F9D2D9170892B86
:1022300090911B059C7F892B80931B0560911A054B
:1022400070911B0584E090E00E94A03480E090E053
:10225000FF90EF90DF90CF900895E6EFF4E0128EBC
:10226000138E8FEA90E09183808325E0248F88E8A5
:1022700093E1938382838AE090E09583848344E1B1
:1022800050E05783468348E050E05187408793876A
:1022900082876EE170E0758764879787868780E51F
:1022A00090E0918B808B538B428B48E250E0558BB2
:1022B000448B42E350E0578B468B48EC50E0518F03
:1022C000408F158E178E168E91A380A322A30E9495
:1022D000C10D0E94551010921B0510921A0580E046
:1022E000846080931B0560E074E084E090E00E94CD
:1022F000A0340E94DE0D0895AAE2B0E0E2E8F1E128
:102300000C9406348BEA91E0FC0101962091F100D7
:10231000208321E0833B9207B9F78091AC0189309B
:1023200009F456C0C8F4823009F4B3C0833009F40C
:1023300082C0813071F18091E80083FFE7C0809115
:10234000AB019091AC019A3008F0E0C0E92FF0E0C9
:10235000EE52FB4C0C94EA338A3009F489C08B307E
:1023600051F78091AB01813231F78091AF019091AB
:10237000B001892B01F78091E800877F8093E80006
:102380000E94DC0B8091AD01809314010E945510D6
:10239000D2CF8091AB01813A71F68091E800877FBE
:1023A0008093E8008091AF019091B001892B61F09A
:1023B00060E080E090E070E00E94830B8091E80094
:1023C0008B778093E800B7CF68E083EB91E0F3CFA1
:1023D0008091AB01813209F0AECF8091AF01909135
:1023E000B0018D7F892B09F0A6CF8091E800877F0F
:1023F0008093E8008091E80082FF18C09091F3007C
:102400008091F200029731F48091F100813011F057
:10241000863021F48091F1008093BB018091E80027
:102420008B778093E8000E94DC0B85CF8091F602C9
:102430008111E0CF80CF8091AB01813A09F07BCF51
:102440008091AF019091B001892B09F074CF8091F8
:10245000E800877F8093E8008091E80080FFFCCF50
:10246000809114018093F1008091E8008E77D9CF9C
:102470008091AB01813209F05ECF8091E800877FC7
:102480008093E8000E94DC0B8091AE018093A7014D
:1024900052CF8091AB01813A09F04DCF8091E80095
:1024A000877F8093E8008091E80080FFFCCF8091D7
:1024B000A701D8CF803889F0823841F58091AF01EB
:1024C0008F70873018F58093E9008091EB0085FBD1
:1024D000882780F91092E90006C08091A8019091A8
:1024E000CD02911182609091E800977F9093E8006F
:1024F0008093F1001092F1008091E8008E7723C064
:10250000811116C08091AD01813011F18091E800F8
:1025100083FF0AC08091E800877F8093E800809164
:10252000EB0080628093EB00AA96E3E00C942234E7
:10253000823061F78091AD01882389F01092E90023
:102540008091E800877F8093E8000E94DC0BDECF5B
:1025500081E0933009F080E08093CD02EFCF80914D
:10256000AF018F702FEF280F263080F68093E9009F
:102570002091EB0020FFE2CF933031F48091EB000B
:1025800080628093EB00DACF9091EB0090619093A2
:10259000EB0021E030E0A90102C0440F551F8A95ED
:1025A000E2F74093EA001092EA008091EB00886025
:1025B000E8CF8111ABCF1091AD011F778091E3007F
:1025C0008078812B8093E3008091E800877F80935F
:1025D000E8000E94DC0B8091E80080FFFCCF809136
:1025E000E30080688093E30083E0111101C082E082
:1025F0008093F6028BCF8058823008F087CF4091CD
:10260000AD015091AE014C3D83E0580799F583E050
:102610008A838AE289834FB7F894DE01139620E01B
:102620003EE051E2E32FF0E050935700849120FF09
:1026300003C082958F703F5F8F708A30C8F0895CCD
:1026400090E08D939D932F5F243161F74FBF809170
:10265000E800877F8093E8006AE270E0CE0101968F
:102660000E94830B8091E8008B778093E8004ECF27
:10267000805DE6CF8091AF019091B001252F332787
:102680002330310509F44AC078F52130310509F4C9
:1026900083C08BE590E0E8E7F2E02230310509F0F5
:1026A00035CF2091E800277F2093E8002091B101E9
:1026B0003091B2018217930708F49C0140E0211584
:1026C000310509F06EC041116CC08091E80082FDB7
:1026D000C9CF8091F602882329F2853019F28091C2
:1026E000E80083FFF2CFBECF2132310509F445C0A7
:1026F0002232310509F00ACF8330910508F006CF68
:10270000FC01EE0FFF1FE85DFE4F0190F081E02D10
:102710008B5D9E4FDC018C9190E010C0CA0199271F
:10272000423019F18330910568F4892BB1F4EFE25E
:10273000F3E0E4918E2F90E0EFE2F3E0009709F4EC
:10274000E5CEAFCF039709F0E1CEE5EEF2E0E491FC
:102750008E2F90E0E5EEF2E0F1CFE1E2F3E0E491DC
:102760008E2F90E0E1E2F3E0E9CFE3E0F3E0E491E3
:102770008E2F90E0E3E0F3E0E1CF8330910508F0A5
:10278000C5CEFC01EE0FFF1FE25DFE4F0190F08110
:10279000E02D89E090E085CF82E190E0E3EDF2E08A
:1027A00080CF8091F602882309F45CCF853009F44C
:1027B00059CF8091E80083FD55CF8091E80082FDDC
:1027C00084CF8091E80080FF7ACF9091F3008091D0
:1027D000F2002115310519F08830910550F041E0E3
:1027E000089709F040E08091E8008E778093E80038
:1027F00066CF44914093F100319621503109019602
:10280000E8CF803809F082CE8091E800877F8093FE
:10281000E8008091A9018093F1006ECE811176CEFF
:102820001091AD01123008F071CE8091E800877FE1
:102830008093E8001093A9010E94DC0B1123D1F0D2
:1028400084E08093F60242E061EC81E00E944B0C50
:1028500042E261EC84E00E944B0C42E261EC82E0D7
:102860000E944B0C42E260EC83E00E944B0C809192
:10287000F6024CCE8091E30087FDE2CF81E0E1CF0C
:1028800080911601877F80931601909141049D7F6E
:102890009093410484FF06C08F7E8093160182E0EE
:1028A0000E945C048091160185FF06C08F7D809395
:1028B000160180E20E945C040E94E10E0895CF920E
:1028C000DF92FF920F931F93CF93DF93EC018B0165
:1028D000F42E8091160182FF66C0C0902F04D09024
:1028E0003004CC16DD0619F0209709F05CC0809109
:1028F00016018B7F80931601C1E081FD10C080918D
:102900002D0490912E049801281B390BC1E0809171
:102910000E0190910F012817390708F4C0E0C1702B
:1029200080911601C0FB81F9809316016C2FC601BE
:102930000E94660780913F0481FF08C080911601C4
:1029400080618093160182E00E94620480913F04BE
:1029500085FF08C08091160180628093160180E295
:102960000E9462046C2FC6010E94D70FFF2031F035
:102970008091110585FF02C086FF29C08091140552
:10298000909115050E94DD0C80912F0490913004E8
:102990009C0130522115304308F499270E941A10E7
:1029A0000E94401410C0CE01905281159043B8F49B
:1029B000CE0199270E941A1080912F049091300423
:1029C000C817D90769F310932E0400932D04DF91E3
:1029D000CF911F910F91FF90DF90CF900895CE017E
:1029E000E9CFCF93DF93EC014A855B856E857F85C8
:1029F0000E9494089B819095809141048923809343
:102A000041048C810E9462040E94E10E86E0FE0176
:102A100011928A95E9F7DF91CF910895CF93DF93D3
:102A2000EC018D8181FD14C082608D838091410411
:102A30009B81892B809341048C810E945C040E94BD
:102A4000E10E488559856E857F85CE010E949408E8
:102A50001092AA031092A9038D8180FD03C0CE01BC
:102A60000E94F114DF91CF9108951F93CF93DF93CC
:102A7000182FA0919F03B091A003109709F44AC0AA
:102A80001092A2031092A10310929D0310929C0336
:102A90001696CD91DC911797CE019A9581159F419D
:102AA00008F4D07ED1E0C11101C0D0E01996ED91BB
:102AB000FC911A97309731F01B966D917C9180E0D4
:102AC0000995D823DD2339F08CEF8C0F813A30F54E
:102AD0008C2F0E9426091123A9F0E0919F03F09109
:102AE000A003808584FD0EC080919E03882351F051
:102AF000808191819C01215031092F333E4710F490
:102B00000E94120B0E94E10E1092A00310929F03EC
:102B100010929E03DF91CF911F9108950E94E10EC4
:102B20008C2F0E94E70FD7CFAEE1B0E0EAE9F5E1E4
:102B30000C94FC33A090F402B090F50281E090E098
:102B40009093F5028093F402812C912C10E06401A3
:102B500000E01AC021E030E0133021F0F701859148
:102B600094919C01472D602F812F0E946C0D7394CE
:102B700022E0E20EF11C3AE07312ECCF0F5F8AE024
:102B8000C80ED11C043049F0C601880F991FDC0122
:102B9000AD5CBC4F7D01712CDDCF1F5FB8E28B0EA9
:102BA000911C1430A1F60E942D111A8219821C82E8
:102BB0001B821E821D8218861F8288EC90E09A87F5
:102BC00089870DE811E04AE050E0B801CE01019696
:102BD0000E94A634065F1F4F0D3D21E0120799F7B2
:102BE000FE013B968AE0DF011D928A95E9F77F019D
:102BF0004AE050E0B801C7010E94A634065F1F4FAB
:102C00000D32B2E01B07A1F7FE01759689E0DF01E6
:102C10001D928A95E9F78FEF9FEF9A8F898F87E052
:102C20008E8F7F014AE050E0B801C7010E94A634B0
:102C3000065F1F4F0D37B2E01B07A1F7B092F502F8
:102C4000A092F4026E96EDE00C94183480E00E949D
:102C5000A30D60E088E290E00E9482340E94941507
:102C60000E94930D81E00E94A30D0895AAE0B0E0B8
:102C7000ECE3F6E10C940134ECE6F2E080E5DF01F0
:102C80001D928A95E9F7E5E4F4E088E3DF011D92FF
:102C90008A95E9F78CE6C82E82E0D82E7F010DEDEB
:102CA00011E0F701D182C0824AE050E0B801CE01C4
:102CB00001960E94543488E0FE013196D6010190BD
:102CC0000D928A95E1F789859A85D70113969C9391
:102CD0008E931297BAE0CB0ED11CE7E0EE0EF11CFA
:102CE000065F1F4F0D32F2E01F07D9F62A96E8E083
:102CF0000C941D34AAE0B0E0E0E8F6E10C94FD335A
:102D000004EF11E082EEC82E81E0D82E9DE2E92E7C
:102D100092E0F92E27E0922E31EEA32E31E0B32E71
:102D200088248394D6010D931D936D014AE050E0F1
:102D3000B701CE0101960E945434F8013896DF01A4
:102D4000892D1D928A95E9F789819A81D80111967A
:102D50009C938E938F8112968C9312978D811396EC
:102D60008C931397888514968C9314978985159660
:102D70008C9315978B819C8117969C938E931697B5
:102D80008A8587FD04C01E96BC92AE921D9780FF77
:102D900002C0F801808681FF07C0D80118969C9177
:102DA0001897926018969C9382FF04C0F801908552
:102DB0009460908783FF07C0D80118969C9118975C
:102DC000986018969C9384FF04C0F80190859061E8
:102DD000908785FF07C0D80118968C91189780625C
:102DE00018968C93015F1F4FBAE0EB0EF11CEDE7D4
:102DF000EE16E2E0FE0609F095CF2A96ECE00C9480
:102E00001934282FCB01283070F44AE0249F900118
:102E10001124B90163577E4F4AE050E00E945434B8
:102E200080E090E008958FEF9FEF0895AAE0B0E072
:102E3000ECE1F7E10C9407349C0197558F3F910525
:102E400009F070F4BE016F5F7F4F822F0E9401175F
:102E5000892B31F489859A852A96E2E00C942334F3
:102E600080910E0590910F05F7CFA0E0B0E0EBE365
:102E7000F7E10C940234D62E172FC42FD22F8823BB
:102E8000A9F040933A040E9453099093A6018093BD
:102E9000A501C77081E001C0880FCA95EAF70E94BA
:102EA000330FCDB7DEB7E7E00C941E3480913A04BF
:102EB000481337C08091A5019091A6010E94600B34
:102EC0007C018D2D912F0E941617E816F90648F502
:102ED000CD130CC0802F0E944810D77081E001C034
:102EE000880FDA95EAF70E94440FDBCFC77011E034
:102EF000812F01C0880FCA95EAF70E94440F80E233
:102F00008D0F883050F48D2F877001C0110F8A9576
:102F1000EAF7812F0E94330FDDCF802F0E944810E7
:102F2000C0CFC77081E001C0880FCA95EAF7DBCF38
:102F30009C01CB01BA01F901329645915491641775
:102F4000750748F0F9013496659174910E944434F4
:102F500080E090E008958FEF9FEF08959C01DA01E3
:102F60000296FC0145915491FC0185919491A8171A
:102F7000B90758F0F9013496859194910E94443430
:102F80000E94C10D80E090E008958FEF9FEF0895BB
:102F9000A8E0B0E0EEECF7E10C94FB33FE013196D3
:102FA00088E0DF011D928A95E9F794E3A92E91E06C
:102FB000B92E8F0128E3E22E21E0F22E3F01CC242E
:102FC000C394D12CF50181915F018F3F09F447C073
:102FD000F894E82FE295EF70F0E021A18F70A60140
:102FE00002C0440F551F8A95E2F7CA01922F982B11
:102FF00091A392A18095892382A3789400C0E8E3ED
:10300000F1E021E030E0812C912C41914F3F09F417
:103010004AC0A42FA295AF70A05EB0E08C9190E062
:103020004F7002C0959587954A95E2F7817081119E
:103030003AC0C901882A992A220F331F51E0E2348D
:10304000F50719F7F501319780818F3F11F00E9444
:10305000830680EA8A95F1F7D8018D929C920E5FE3
:103060001F4FEA14FB0409F0ADCF48E050E0B30174
:1030700084EC92E00E943734892BC1F088E0F301A0
:10308000A4ECB2E001900D928A95E1F781E0809383
:10309000A4010E9453099093A3018093A201289652
:1030A000EEE00C94173480E090E0C4CF8091A4014E
:1030B0008823A9F38091A2019091A3010E94600B43
:1030C000059768F348E050E064EC72E08CEE92E023
:1030D0000E943734892B49F088E0E4ECF2E0ACEE52
:1030E000B2E001900D928A95E1F71092A401D7CF3A
:1030F000A0E0B0E0EEE7F8E10C940034EC010881C8
:10310000002309F4A8C0013009F044C0898181304E
:1031100049F48E010E5F1F4F8A810E944810E8011A
:103120002196EDCF823039F48E010E5F1F4F8A81D8
:103130000E94560FF4CF833039F48E010E5F1F4F7B
:103140008A810E94E70FEBCF843011F02196E8CFFF
:103150002A81229680E090E06AE0AE014F5F5F4FE7
:103160002053330B2A30310550F00097C9F2EFE9B4
:10317000FFE03197F1F700C000000197F6CF689F9C
:10318000F001699FF00D1124C9018E0F9F1F298145
:10319000EA01E3CFE02FF0E0E850FE4FB490202F9B
:1031A00026952695269530E0F901E851FE4FE490EA
:1031B0000770F12C002E02C0F594E7940A94E2F710
:1031C000F1E0EF22FF24F901E852FE4FC490D12C28
:1031D000002E02C0D594C7940A94E2F781E0C82279
:1031E000DD24F901E853FE4F1491E114F104A9F430
:1031F000C114D10409F560E070E08B2D0E943010FD
:10320000E12FF0E002C0F595E7950A95E2F7E0FFBF
:1032100087CF8CE20E94481083CF81EE0E94560F28
:10322000C114D10449F460E070E08B2D0E9430108D
:1032300081EE0E94E70FE4CF86EE0E94560F60E019
:1032400070E08B2D0E94301086EE0E94E70FE11493
:10325000F104B1F2EDCFCDB7DEB7E9E00C941C3448
:10326000A5E0B0E0E6E3F9E10C94F7337C01DC0182
:1032700014968C91882309F470C261E0C7010E9402
:10328000BC0E8C01F7018581882319F18091A90377
:103290009091AA030097E9F008171907D1F0992730
:1032A00074E0880F991F7A95E1F7FC01EE54FC4F0A
:1032B00020812460208383559C4FDC010D931C9357
:1032C0000E940E151092410461E0C7010E94BC0EDD
:1032D0008C01F7015580552009F4BAC0C8019757F1
:1032E0008038910508F00FC2D02EFFE0F01708F4E7
:1032F00024C28FEF93E00E94643481111EC20DE757
:1033000012E0D1103CC08091180190911901A09158
:103310001A01B0911B0189839A83AB83BC83680136
:103320004FEFC41AD40AC8010E94643489831A82F8
:10333000882309F402C2813009F084C0580152E0A8
:10334000A50EB11CC6010E946434D82E8A8388233E
:1033500009F4F3C1C5010E946434C82E8FEF8D0DAE
:103360008330D8F4CB82CC2021F0CE0101960E948C
:103370007818580183E0A80EB11C8501D0CF011543
:1033800024E0120709F4D9C1C8010E9464340F5F18
:103390001F4F8111F4CFDA94B4CF8BEF8D0D8330B2
:1033A00040F5580193E0A90EB11CCB82CC2029F343
:1033B000C5010E9464348C83882381F08B819C81B9
:1033C0008130AFEF9A0710F0982F8827B6E0DB1610
:1033D00051F0E7E0DE1651F00E9468295801F4E050
:1033E000AF0EB11CCACF0E942429F8CF0E944629F3
:1033F000F5CF24E0D212C1CF580144E0A40EB11C95
:10340000C80103960E946434CC2009F496C1882335
:1034100009F493C18150990B4FEF489F9001499F48
:10342000300D1124AC2DA150BB0B2A0F3B1F215096
:10343000310908F4A2CFEFE9FFE03197F1F700C0BE
:103440000000F5CFCE0101960E947818560195CF65
:10345000011527E5120708F484C1011548E5140792
:1034600008F022C1680157E5D51A62E973E08C2D96
:103470000E940117892B21F5C60154E0880F991F7E
:103480005A95E1F7FC01E355FC4F22812130D9F434
:103490002091920330919303232B91F02091940378
:1034A00030919503232B61F020919603309197037F
:1034B0004091980350919903242B352B232B59F0DD
:1034C000F701558015C02230D9F72091960330912D
:1034D0009703232BA9F3FC01EE54FC4F20812E7F90
:1034E000208383559C4F0E940E15D70115965C9042
:1034F00080911501882309F45EC1480150EE851AB8
:1035000091084090400480913F04482A80913E04F5
:10351000482A88E08816910408F096C1980127701F
:10352000332781E090E001C0880F2A95EAF7552003
:1035300009F487C1482AD7018D919C910E94E1032B
:1035400021E030E0190102C0220C331C8A95E2F719
:1035500060909F037090A0031D82BD81EB2FF0E06F
:10356000EE0FFF1FEE51FE4FC080D180C114D10479
:1035700009F4BEC1411004C0F6018281811188C1E5
:10358000D60113968C91139790E082219321892B79
:1035900009F47EC118968C91982F977091116AC189
:1035A000B8E08B16910408F077C151106BC1F60199
:1035B000A080B1800A151B0509F46AC1C614D7049E
:1035C00009F466C1D6011D96ED91FC91309721F06A
:1035D0008081882309F45CC1642DC6010E94C9075B
:1035E000882309F455C10A151B0511F4511005C0B3
:1035F000A114B10409F058C1512C80E00E94351586
:10360000D092A003C0929F0381E080939E03F601B5
:10361000858180939D0351100DC0AB2859F08081A6
:1036200091819C0124503109213A310508F044C1AF
:103630000E942609F601A680B780C5019A958115DA
:103640009F4110F420EEB22277247394C5010197B4
:103650008F339E4708F0712CD6011996ED91FC919D
:103660001A97309731F01B966D917C9181E0099506
:10367000782281E05826772009F437C1F601868147
:1036800097810E94370380939C03C501F8E08F1651
:10369000910408F014C10E94120B0E94E10E511017
:1036A00064C00E94E10E49C080911501882309F48D
:1036B00082C18091A7039091A8030817190781F48C
:1036C0001092A8031092A7031092A3031092A403D0
:1036D0001092A5031092A6031092A2031092A103C8
:1036E000E0919F03F091A003309709F45DC08081C1
:1036F00091810817190709F057C010929E0380E0C6
:103700000E94351551C00E35FCE71F0799F00F35A3
:103710002CE7120749F0509015010D354CE71407BE
:1037200009F040C0552031F01092150180E00E9450
:10373000351503C081E080931501809142048770A4
:10374000882359F0F7018581882339F080911B0582
:1037500082FF03C082E00E9440042596E2E10C94BF
:103760001334809115018111C8CE8091110580FF1D
:1037700087C20E9453096C01D70115968C91811163
:103780002CC1013E110509F40DC1053E110509F0DA
:10379000D4C1809116018F7D80931601D7011596B3
:1037A0008C916FC15110A9CEC80197558F3F9105DB
:1037B00011F008F000C1F801FF2734E0EE0FFF1F01
:1037C0003A95E1F7AF0143555C4F6A01D701159671
:1037D0008C91EE54FC4F908180FB90F9908388236C
:1037E00009F4ADC00E9453099093AC038093AB03DE
:1037F000F60182818F5F82838091410490913F0422
:10380000892B838380913E0484834681578166851A
:103810007785C6010E949408D60115968C9181FD8A
:103820008BC0902F812F9093A9038093AA0380913E
:10383000110580FFF7C20E9453096C01F7018581D1
:10384000ABC08095482277CE552009F432CF109333
:10385000A8030093A7030E94F50A6093A303709343
:10386000A4038093A5039093A6031092A203109241
:10387000A10361CEE8E08E16910488F4552031F062
:1038800081FF06C0D601AD90BC9098CE82FD8FCE50
:103890009D819F5F9D8361CE5110F4CFF9CF55205C
:1038A000B9F380FFF5CFEECF8091A7039091A803E5
:1038B0008A159B0569F7A0CE0E94E70FBBCE04973F
:1038C000813A910530F48A2D0E94F20851106CCF94
:1038D000E8CE0E94E10E8FE39CE90197F1F700C06A
:1038E00000008A2D0E94560FF1CF0E94E10EEECF0C
:1038F0006114710409F458CFA8E08A16910450F4B9
:10390000642DC3010E94C90781112FCF81E00E945D
:1039100035152BCFF301808191810817190739F4F0
:10392000552009F4EACE808585FD3ECFE8CE5520AE
:1039300009F43ACF8085F8CF90E080E074CFFA01A7
:103940004485558566857785C6010E949408D60111
:1039500015968C9181FF2CC0C6010E94F114209114
:10396000A9033091AA03809111050217130761F48E
:103970001092AA031092A90380FD5DCFF701858103
:10398000882309F430C14EC080FF4CC20E94530905
:103990006C01D70115968C9181111FC0013E110554
:1039A00009F0CBC0809116018F7E8093160167C00D
:1039B00080911105E1CF8091110580FDDACED7010C
:1039C00015968C91F801E851FC47E730F10508F0B5
:1039D00057C1E452FB4C0C94EA338091160182FFEC
:1039E00006C040E0B60180E090E00E945F14043120
:1039F000FCE71F07C9F105312CE7120709F1D701D0
:103A000015968C910331BCE71B0709F064C09091B7
:103A100016019160909316018823A9F11092300449
:103A200010922F0410923A04C8019057839708F41B
:103A3000FDC10631BCE71B0709F078C091E02FC13A
:103A400090911601892F8E7F90FF816080931601DF
:103A50000E9440148091160180FFA0CEF70185815D
:103A6000882309F40DC155C0809116018E7F809383
:103A700016010E9440148091160180FDEFCFF701DE
:103A800085818111CFCFD70115968C91882309F4B8
:103A900059C00A35BCE71B0709F4D9C208F0BDC2FA
:103AA0000130FCE71F0709F4D0C203302CE71207EE
:103AB00009F4C5C201151C4709F044C00E94551005
:103AC0009FEFA4E3BCE09150A040B040E1F700C0FC
:103AD00000000E946F0B9801305221153043F0F026
:103AE000D70115968C919091160190FF68CF0832FE
:103AF000110508F06BC00E31110508F0B6C0980131
:103B0000245031092A31310508F486C0882309F48C
:103B10006AC01092300410922F04B2C01092300488
:103B200010922F04882371F010923A040737ECE7C3
:103B30001E0709F062C281E066C2C8019052811579
:103B4000904370F6D70117968D919C91009709F4D8
:103B500082C20E9468058C01D7011596BC9015970A
:103B60001696CC90C2942FE0C222809142048770B6
:103B7000882301F1AB2CBB20F1F0812F807F8034B2
:103B800061F080E2800F8830A8F0812F807E803243
:103B900021F4023078F0CC2069F080911B0582FF7F
:103BA00009C082E00E944004809142048770AA24E8
:103BB000A3948111A12CE12FE295EF70103C08F045
:103BC0007CC2F0E0ED51FB4C0C94EA330933110553
:103BD000C0F40D32110508F04DC00B32110509F487
:103BE00049C081111BCF07372CE7120709F413C214
:103BF00082E008374CE7140709F045CF0E949A038A
:103C000004C204361105B1F1882309F4D8CE10920C
:103C1000300410922F04D3CE9091110594FD76CFED
:103C2000882309F4CDC080913E0490913F04892BF4
:103C30008D7F882309F45BC01092300410922F040A
:103C40008091110581FD53C060E0C8010E946607A4
:103C500060E0C8010E94D70F80913E048D7F0E94D2
:103C6000E50982E00E94400468CD9091110593FD22
:103C70004DCFD6CF9091110592FFD2CF8111C7CFF2
:103C8000F7018581811110923A04D70115969C9114
:103C90009111CACE0631FCE71F0709F0A4CF80912D
:103CA0003F043091100530FF04C0282F24742111E7
:103CB0008CC1282F2A7A31FF04C0482F417141114D
:103CC00020E0432F487032FF82C1382F38783323E9
:103CD00009F47DC141118DC1911184C180913B04D2
:103CE000882309F488C185E30E942609DACC89E09B
:103CF000F701A1E3B4E001900D928A95E1F71092EB
:103D000034041092330480912F04909130040817EA
:103D10001907C9F52091110525FF35C0309116010D
:103D200031FF02C026FF2FC020912D0430912E04B8
:103D30005601A21AB30A0E941617A816B90618F55A
:103D400080913F0481FF08C08091160180618093BB
:103D5000160182E00E94620480913F0485FF08C042
:103D60008091160180628093160180E20E946204B5
:103D7000609116016695617080912F0490913004D6
:103D80000E94D70FDACC80913E04B0903F04B82A4D
:103D9000B1FABB24B0F88D7F0E94E509109330047E
:103DA00000932F04D0922E04C0922D04BB0C689473
:103DB000B2F890911601997FB92AB092160151CFAD
:103DC00040E0B601C8010E945F14B7CC06E221EEC4
:103DD00041EE6AE17CE70E943517AFCC07E225EEA1
:103DE00045EE6BE17CE7F7CF06E221EE40EE68E1BD
:103DF0007CE7F1CF07E225EE44EE69E17CE7EBCF0B
:103E000006E221EE42EE6CE17CE7E5CF07E225EE2B
:103E100046EE6DE17CE7DFCF08E221E045EE6EE1A2
:103E20007CE7D9CFD70115968C91AACD84E090E09C
:103E30000E946C3490931B0580931A05F801E150A1
:103E4000F047E232F10520F4E151FB4C0C94EA33E7
:103E500080911A05816080931A0560911A0570910E
:103E60001B0584E090E00E94A0340E94551065CCB0
:103E700080911B05886080931B05EFCF80911A0508
:103E80008260E9CF80911A058460E5CF80911A05A0
:103E90008860E1CF80911B058160EDCF80911B058B
:103EA0008260E9CF80911A058061D5CF80911A0593
:103EB0008062D1CF80911A058064CDCF0E945510C9
:103EC00080911A058068C7CF80911A058C60C3CF96
:103ED00080911B058360CFCF80911A058E7FBBCF69
:103EE00080911B05877FC7CF80911A058D7FB3CF47
:103EF00080911A058B7FAFCF80911A05877FABCF5A
:103F000080911B058E7FB7CF80911B058D7FB3CF2E
:103F100080911A058F7E9FCF80911A058F7D9BCF50
:103F200080911A058F7B97CF0E94551080911A05BA
:103F30008F7791CF80911A05837F8DCF80911B055C
:103F40008C7F99CF80911A0582FB992790F921E007
:103F5000922790FB82F990FB83F97DCF80911B051E
:103F6000982F909591708E7F892B90FB81F983CF4C
:103F700090911A05892F8F7B96FF80646CCF0E94E9
:103F8000551090911A05892F97FB87F9805863CFB8
:103F900061E08EE090E00E9482345FCF60E0F9CF74
:103FA00090911A05892F8F7E94FF806154CF909154
:103FB0001A05892F8E7F90FF81604DCF90911B0550
:103FC000892F877F93FF886056CF20E074CE4423EB
:103FD00019F08272811180CE992309F47FCE85E396
:103FE000211102C090E089E290933B040E94F20804
:103FF00058CB20E0EECF89E277CE82E008375CE74D
:10400000150709F040CD0E948E0343E062E081E095
:104010000E94150492CB81E0F1CD0B355CE71507CA
:10402000C1F00C351C4709F08DCD80911B0582FB3A
:10403000882780F991E089270E94550D83CD6FEF85
:104040007FEF80E090E00E94A0340E94861081E023
:10405000F3CF80E0F1CFF7018581C080D180882344
:1040600069F0C6010E94500E182F682FC6010E94E9
:10407000AA03B601812F0E94330E6BCDC6010E94A8
:10408000E103182FF6CFB12FBF70DB2E103118F0DF
:10409000D29490EFD922BB2019F1DD2059F080E2B3
:1040A000800F883010F0011115C08D2D0E945C0426
:1040B0000E94E10E802F0E94560FC8010E946B03E0
:1040C000882309F484C0BB2009F49DC2CC2009F4E4
:1040D0005CC07DC0809141048D2980934104E8CF6C
:1040E000802F0E94E70FDD2041F380E2800F8830AF
:1040F00010F0011104C08D2D0E94620406C0D094FE
:10410000809141048D21809341040E94E10ED5CF1E
:10411000E12FEF70DE2E812F807F803219F0D29454
:1041200080EFD822002369F0013009F4B0C0BB2031
:1041300009F4C4C0CC2009F4BCC0802F0E94560FE3
:1041400046C080911B0582FD12C0BB2049F0DD20D6
:1041500029F08D2D0E945C040E94E10E80E0ABCF1F
:1041600080E00E94E70FDD2009F4A7CFC4CFBB2079
:1041700009F452C0C11022C08D2D0E94330F80E07F
:10418000912F0E946B03882311F1AA2009F436C2F3
:104190008091420480FD32C2F70115828695869592
:1041A00086950E948E03C7010E94301980914204B7
:1041B0008695869586950E949A0320C2F1E0CF12DB
:1041C00015C000913E048D2D8023D81205C0109299
:1041D0001D0510921C05D9CF0E94530990933D04F0
:1041E00080933C040D2900933E04F1CF8091120589
:1041F000823068F3C812EBCF8D2D0E94330F8D2DC6
:104200000E94CF09809140049D2D9823D916F9F280
:104210008D2980934004DBCFC11019C08D2D0E94E1
:10422000440F8D2D0E94CF09809140049D2D98232D
:10423000911108C080E0912F0E946B03882339F20E
:10424000DA2C8CC1D094D822D0924004F3CF809144
:104250001205823008F4BBCF21E0C212B8CF8091A2
:104260003F048D21882309F4B2CF8D2D0E94440F85
:104270008D2D0E94CF09809140049D2D9823992374
:1042800009F4A5CFD094D822D0924004A0CF809139
:104290001805BB2039F08C1508F499CF8D2D0E949C
:1042A000330F0BCFC81608F008CF8D2D0E94440F96
:1042B00004CF8D2D0E94330F802F62CFCC2081F050
:1042C0008091160590911705093321F0809114050E
:1042D000909115050E94DD0C802F0E94E70F77CF8B
:1042E0008D2D0E94440F802FA6CF812F8695869515
:1042F0008370882361F0813009F0DFCEC8019370AC
:10430000B11002C080E090E00E94CC08D6CEC80177
:104310009370B11002C080E090E00E94A608CDCE5C
:104320006B2D802F0E94210AC8CE812F83708111AE
:1043300035C0B11028C0402F429546954770440FB4
:10434000440F802F8F70042E01C0880F0A94EAF763
:10435000202F2071222339F02FE030E001C0220FFE
:104360004A95EAF72095312F3695369533703230DD
:1043700081F0333061F04091F404313039F0822B18
:1043800084230E9488030E94990897CE842B822B55
:10439000F8CF822B9091F4048927F3CFBB2059F1F9
:1043A00010FFF1CF402F429546954770440F440FC0
:1043B000802F8F70042E01C0880F0A94EAF7202FF7
:1043C0002071222339F02FE030E001C0220F4A95FE
:1043D000EAF72095312F369536953370323089F0D3
:1043E000333069F04091F504313041F0822B842361
:1043F0000E948B03C8CF823030F2D4CF842B822B23
:10440000F7CF822B9091F5048927F2CF412F4F707F
:10441000D42EBB2039F0842F0E948E03802F0E945F
:10442000330FB1CF802F0E94440F8D2D0E949A032D
:10443000AACFDB2C023F79F178F4003FC1F0013FB5
:1044400009F440C0BB2009F4C4C0CC2009F4BEC0AC
:10445000802F0E94560F97CF033F21F1043F71F147
:10446000B110F3CFC110BEC0812F8F71DFCF80910B
:104470001805BB2061F0C81608F085CF212F2F71D9
:1044800081E090E001C0880F2A95EAF7BBCF8C1538
:1044900008F479CFF3CF812F8F71B110C7CF0E946D
:1044A0008E0371CF80E0BB2009F4A2CF81E0912F71
:1044B0009F7101C0880F9A95EAF79ACF80911B05EA
:1044C00082FD06C0812F8F71BB2009F4AFCFE7CFEB
:1044D00080911205823008F461C0BB2041F19091B7
:1044E000420497709430B9F410924204109244043C
:1044F00010924304812F8F710E949A030E949908A1
:1045000084EF912F0E946B03811176C010921D05DC
:1045100010921C0573C0C81688F7012F0F71802FE9
:104520000E948E0363E0802F0E94B809E7CFC8166F
:1045300088F110924204109244041092430464E003
:10454000812F8F710E94B8090E94990884EF912FE2
:104550000E946B038823D1F2C110D8CF40E0D7016D
:1045600015966C9115978D919C910E949E0E80914D
:10457000130583FF09C080911C0590911D050297CA
:1045800019F4802F0E94481010921D0510921C05EE
:10459000AD2CFBCD81E00E944004D6CFBB2059F06A
:1045A000512F5F71D52E852F0E948E0363E08D2DD4
:1045B0000E94B809E8CE81E00E94400481E08C1599
:1045C00008F0E1CE82E00E944004DDCE812F8F71A1
:1045D00066CFCC2009F448CF80911605909117053D
:1045E000093321F080911405909115050E94DD0C8E
:1045F000802F0E94E70FC7CEC11088CF60E0C701AF
:104600000E94BC0EAAC8C110E2CD1ACEA0E0B0E054
:10461000ECE0F3E20C94023480917703803108F0EF
:1046200049C080917603882309F444C0C0912803CF
:1046300089E0D82E809127038C17E1F1EC2EF12C24
:10464000DC9EE0011124FE01E75DFC4F848188239C
:10465000B1F1918180917203981331C09081809162
:10466000710398132CC08581811129C002811381A7
:104670008091730390917403081B190B60E081E72C
:1046800093E00E94BC0E0E94161708171907B8F491
:10469000809177038F70806180937703C15DDC4FD9
:1046A00088818F708061888381E793E00E94301950
:1046B0000E943604CDB7DEB7E7E00C941E34E70164
:1046C0002196C770B7CFAFE0B0E0E9E6F3E20C9413
:1046D000FA338C0186E0F801DE011A9601900D9202
:1046E0008A95E1F7D801CC9011967C901197159698
:1046F0006C9015971296ED90FC90139714965C9021
:1047000081E7A82E83E0B82E80917503811118C02F
:10471000552099F0662009F4BFC1C8010E948A0E95
:10472000882309F4B9C189E0F801A1E7B3E0019059
:104730000D928A95E1F70E940623FF24F3944BC063
:1047400060E081E793E00E94BC0ED09076038091F8
:10475000730390917403DD2009F449C14701881A5D
:10476000990A60E081E793E00E94BC0E0E94161750
:104770008816990608F0F6C05520F9F2B090770334
:1047800090917203F8018181FFE0FB1508F4A1C04C
:10479000F62C981325C090917103D8018C91981331
:1047A0001FC0209178033091790317968D919C91C9
:1047B00028173907A9F4611077C08B2D8F7080619D
:1047C0008093770381E793E00E943019809177030B
:1047D000F8018683F12C8F2D2F96EFE00C94163480
:1047E000611062C0E091280380912703AE2F99E009
:1047F000A81302C099E02AC02A2F30E09A9FD00166
:104800001124A75DBC4F11964C911197741207C0EB
:104810004C91C41204C015964C91411147C1D90165
:104820001196A770E5CF2E2F30E09E9FF001112446
:10483000E75DFC4F4181741206C04081C41203C081
:1048400045814111C7CFF9013196E7708E13EBCF47
:104850008A859B850E947B0E292F22952F7090348C
:1048600048F02A5F2F702230C8F0C8010E9430192A
:10487000FD2CB1CF9F70223038F0992351F0F80110
:104880009681903130F4A7CF992319F0882309F449
:10489000A2CF805E883008F49ECFE7CF803F08F437
:1048A0009ACF815F8230F7CF8091770381608093C8
:1048B00077038091130581FD8DCF81E793E00E94FE
:1048C000301989E0E1E7F3E0DF011D928A95E9F70D
:1048D00081CF981321C090917103D8018C919813C6
:1048E0001BC0209178033091790317968D919C918C
:1048F00018972817390781F461100EC01696BC92DC
:10490000C8010E94301989E0F801A1E7B3E00190E5
:104910000D928A95E1F711CFC8010E948A0E882373
:1049200009F4BAC0662009F4B7C0809177038032D9
:1049300008F4F9CE80917103909172039A83898370
:10494000FC82EB82809175038D831E82BF828091F1
:1049500078039091790399878887CE0101960E9408
:104960003019E1CED0907703BFE0BD1508F0A5CF98
:10497000552009F4E2CE90917203F80181819813D9
:104980001AC0909171038081981315C0209178030B
:1049900030917903878190852817390761F4611078
:1049A0000AC0D682C8010E94301989E0D5011D9243
:1049B0008A95E9F7C2CEC8010E948A0E882309F4BD
:1049C0006BC0662009F468C080917703803208F4D8
:1049D000AACE80917103909172039A838983FC829D
:1049E000EB82809175038D831E82DF82B0CF6701D9
:1049F000C81AD90A60E081E793E00E94BC0E0E94C9
:104A00001617C816D90608F04BC0552009F495CEE4
:104A1000662009F441C090917203F80181819813D6
:104A200031C090917103808198132CC0209178033C
:104A300030917903878190852817390719F580917E
:104A4000730390917403E81AF90AF8ECEF16F10475
:104A500008F059CF8091770380FD55CF803108F45D
:104A600052CFD80116968C931697982F907F903F2F
:104A700009F446CF982F907F905F8F70892B169600
:104A80008C933ECFC8010E948A0E81114CCE80913A
:104A90007703816080937703C8010E9430194DCE5F
:104AA00089E0F50111928A95E9F794CE909113056A
:104AB00090FFA0CE02CFA2E1B0E0E1E6F5E20C94D7
:104AC00005340A871B872C873D874E875F87688B55
:104AD000798B8A8BCE010A960E94632381112BC0A9
:104AE00089E0FE013A96DE01119601900D928A95B9
:104AF000E1F720912703409128038E858823D9F080
:104B000030E0C90101968770992750E08417950716
:104B1000E9F099E0929FD001939FB00D1124A75D19
:104B2000BC4FFE01319601900D929A95E1F780936A
:104B300027030E94360419E08091280390912703EF
:104B4000891312C06296E4E00C9421340E9455103F
:104B5000109227031092280389E0E1E7F3E0DF01D8
:104B60001D928A95E9F7E7CF189FC0011124875D50
:104B70009C4F0E946323882329F38091280390E0AF
:104B800001968770992780932803D6CFEF92FF92E2
:104B90000F931F93CF93DF938091F104E091C001B5
:104BA000CDE0811131C0CDB7DEB7E6E00C941F3403
:104BB000D1E0DE0FD093C001EE2EF12CCE9FF0019C
:104BC0001124E757FB4F84818823E9F08781908582
:104BD000892B21F481859285019659F400811181F8
:104BE00022813381448155816681778180850E944D
:104BF0005B25CE9DF001CF9DF00D1124E757FB4FB3
:104C0000148210924104ED2F8091F104E81780F294
:104C10001092F1041092C001C6CFA4E0B0E0E3E12D
:104C2000F6E20C94F83320918804298317E0912E42
:104C300001E010E08DE0382E94E0492E5524539485
:104C4000809187049981891308C00E94C6250E941B
:104C50008C072496E1E10C9414345981452F50E0DF
:104C60005C834B83FA01EE0FFF1FE358FB4F8081FB
:104C70009181989ED001999EB00D1124FD01EB5BAE
:104C8000FB4FFA83E983248121115DC07090F10408
:104C9000E9E8F4E060E070E0812C671508F051C0AD
:104CA000A384B484A981BA81CD90DC904FEF5FEFEB
:104CB000612C262D30E07901EE0CFF1CEC0CFD1C64
:104CC000D701ED90FC90E114F10439F0AE14BF046B
:104CD00009F09A016394A901ECCF4F3F5407E1F129
:104CE000D80102C0AA0FBB1F4A95E2F78A2AA80181
:104CF000062C02C0440F551F0A94E2F79A01215076
:104D00003109482D50E02417350729F5369EF0016A
:104D1000379EF00D1124E757FB4F989ED001999EC6
:104D2000B00D1124AB5BBB4F12962D913C911397A4
:104D3000308727834482108211829287818715965B
:104D40005C920E949D078B819C8101969A83898346
:104D50008370898375CF14826F5F7F4F3D969DCF9F
:104D60001092F3041092F2041092170180918704BC
:104D7000809388040E948C070E94C6250895ACE1A8
:104D8000B0E0E5ECF6E20C94F7334B8B5C8B6D8B6B
:104D90007E8B8F8B988F882349F080911C05909192
:104DA0001D05019690931D0580931C05588C51108C
:104DB00010924104188A198A1A8A86E0FE017396B5
:104DC000DE011A9601900D928A95E1F780911B05FC
:104DD00082FF21C08091F8049091F904892BD9F0C9
:104DE0000E9453092091430430914404821B930B89
:104DF0002091F8043091F9048217930738F08091DC
:104E0000420482FD03C082E00E9440040E945F09C8
:104E100081110E946A048E85882379F061E0CE01B9
:104E20000A960E94BC0E5C0180352CE7920789F43B
:104E3000552011F181E0809317010A851B852C858F
:104E40003D854E855F85688979898A890E945B25C1
:104E5000C8C081353CE7930729F4552069F00E94CA
:104E6000B026EBCF82359C4739F4552029F080914C
:104E700017018111F4CFDECF85E4E82E84E0F82E0F
:104E8000412C812C912C66246394712CD7014D9177
:104E90005C91CC24CA94DD24DA9420E0822F90E047
:104EA000FC01EE0FFF1FE40FF51F6081718161159A
:104EB000710539F0A616B70609F0C6012F5F6C011F
:104EC000EDCFBFEFCB16DB0609F473C1F7015481B8
:104ED00035814681511104C180911701882309F45D
:104EE00011C1552009F40EC100910C0510910D055A
:104EF000311114C081E090E00C2C01C0880F0A949D
:104F0000EAF7482B468380918504909186048017A8
:104F1000910720F41093860400938504A30102C036
:104F2000440F551F2A95E2F79A0121503109D70104
:104F300016968C9190E02817390781F48091F2043D
:104F40009091F304009709F450C00E94600B081779
:104F5000190708F04AC081E0F7018483852D482AAB
:104F6000BFEF8B1A9B0AE7E0EE0EF11CF8E08F16FC
:104F7000910409F08BCF552009F42FC1442009F486
:104F80001AC10E9453099093F3048093F204809114
:104F9000F104883030F591E0980F9093F10499E096
:104FA000FE013A96DE01119601900D929A95E1F775
:104FB0002DE0829FC001112487579B4F29E0FE01FD
:104FC0003196DC0101900D922A95E1F72FEF3FEF2A
:104FD000DC011A963C932E9319971C96BC92AE92C4
:104FE0001B976C96E2E10C94133420918804809115
:104FF0008704922FE0E0F0E06701281314C090933B
:105000008804EE15FF0509F4A9CF90E0FC01EE0F2E
:10501000FF1FE358FB4F918280820196837099278E
:10502000809387049BCF022F10E0F801EE0FFF1F43
:10503000E358FB4F60817181F7E0F69FD001F79F45
:10504000B00D1124AB5BBB4F4D915C9111975C8F00
:105050004B8F50E030E040E0E42FF0E0EE0FFF1F18
:105060006B8D7C8DE60FF71F208031802114310479
:10507000E1F0F7010190F081E02DFA8FE98F30E047
:1050800005C02616370609F4552D3F5FE32FF0E0E3
:10509000EE0FFF1F698D7A8DE60FF71F608171811A
:1050A0006115710571F74F5FD7CF5523B1F0F60148
:1050B000341708F0FD0131E03483EE15FF0509F4E3
:1050C0009ECF921305C0EA17FB0711F49F5F937000
:1050D00098012F5F3F4F237090CFE0E0F0E0F8CFD2
:1050E00050E031112FC0B30102C0660F771F2A951F
:1050F000E2F7CB0101974817590799F4C4010E94C0
:105100009D070FC050E031111DC0D30102C0AA0F8E
:10511000BB1F2A95E2F79D0121503109241735075D
:1051200009F080E0F30102C0EE0FFF1FCA94E2F71E
:105130006F01C094D70116969C9116979C211696E4
:105140009C930DCFCA010C2C02C0959587950A94AB
:10515000E2F79A012150310924233523232B39F515
:1051600080FF25C0F70182819381892BD9F087E0E8
:10517000FE013196DF011D928A95E9F70E945309DD
:105180009C018B839C8384E08D83F70192818381D2
:10519000792F9887898709811A8144E05E816F8120
:1051A0000E945B25D70115961C9281E0BBCF8170D0
:1051B000B9CF80E0D4CE9091870480918804981371
:1051C00009C00E94C6251092F3041092F2040E94B6
:1051D0008C0733CE0E940D2630CE909188048091AA
:1051E0008704981729F00E940D264110FACE25CE8B
:1051F0000E94C6251092F3041092F2040E948C07BC
:10520000F4CFA6E0B0E0E7E0F9E20C9405340E94A8
:1052100053098C018091FB029091FC028017910749
:1052200079F019821A820E945309BC0149815A817E
:1052300080E090E00E94BF261093FC020093FB02E6
:105240002696E4E00C942134A6E0B0E0EAE2F9E22C
:105250000C9407349093F8028093F702811520E2B2
:10526000920730F40E94C10F2696E2E00C9423349A
:1052700080EF89838A830E9453098160BC01498140
:105280005A8181E091E00E94BF26EECFA6E0B0E017
:10529000ECE4F9E20C9407349093F8028093F7025F
:1052A000811520E2920730F40E941A102696E2E05F
:1052B0000C94233480EF89838A830E945309816090
:1052C000BC0149815A8181E090E00E94BF26EECF67
:1052D000CF93DF93D82FC92F0E94242980911405E2
:1052E000909115050E94DD0C8D2F9C2F0E94462960
:1052F000DF91CF9108950F931F93CF93DF938C018C
:10530000862F62E973E00E940117892BB1F4C091E6
:105310009203D0919303209781F0F801828183302A
:1053200051F4CE010E946829CE010E946829CE0165
:105330000E94682902C08430D0F7DF91CF911F917D
:105340000F9108950F931F93CF93DF938C01EB017F
:1053500062E973E08C2F0E940117892B09F05AC073
:10536000FE01FF27D80112968C911297E454FD4F4D
:105370008130A9F415968C9182FD51C080FF4FC0F9
:1053800082E0808380919403909195030097B9F413
:1053900080919203909193030097E1F110C08230C5
:1053A000B9F515968C9182FD28C080FD0BC083E075
:1053B00080838091960390919703009701F10E945A
:1053C000242928C084E080838091980390919903D8
:1053D0000097A9F78091920390919303009711F1A0
:1053E0000E9468298091940390919503009739F762
:1053F0008091920390919303E2CF85E08083809126
:10540000920390919303009729F00E946829F0CFAE
:1054100086E08083DF91CF911F910F91089581E005
:105420008083B6CF8091940390919503B5CF0F936D
:105430001F93CF93DF938C01EB0162E973E08C2F14
:105440000E940117892BA1F48091140590911505F4
:105450000E94DD0CDD27C454DD4F8881F8011282E3
:1054600018828330F1F048F4813059F0823081F0B5
:10547000DF91CF911F910F9108958430B9F085305D
:10548000B9F78091920390919303009789F306C036
:105490008091940390919503009799F30E94462977
:1054A000E7CF8091960390919703F6CF8091980370
:1054B00090919903009791F7209192033091930373
:1054C000809194039091950321153105F1F2009795
:1054D00029F7C901E3CFCDB7DEB7AE970FB6F89481
:1054E000DEBF0FBECDBF85B7806885BF85B780683A
:1054F00085BF84B7877F84BF0FB6F894A895809145
:105500006000886180936000109260000FBE80E8A8
:1055100090E00FB6F89480936100909361000FBE05
:1055200081E896E090937901809378010E94A90622
:105530000E9436160E947A160E94DE0D0E942C0CE4
:105540000E94820C8091E20084608093E200789453
:105550008091F602882399F08091E9001091EC0087
:105560001795112717958F70182B1092E9008091CD
:10557000E80083FD0E947C111F701093E90082E017
:1055800084BD93E095BD9AEF97BD80936E000E9415
:10559000C80E811102C00E94261681E90E9483066E
:1055A00080E90E94830684E90E94830686E60E94C1
:1055B000830608E311E0D8018D918D018F3F11F032
:1055C0000E948306B1E002341B07A9F788E0ECEEE5
:1055D000F2E0DF01282F1D922A95E9F7E4ECF2E0D2
:1055E000DF011D928A95E9F780E090E00E946C341B
:1055F000863E9E4F21F40E94C80E811168C066EE5F
:105600007EEF80E090E00E94A03460E082E090E0D5
:105610000E94823481E08093F40461E083E090E0B2
:105620000E94823460E074E184E090E00E94A03443
:1056300060E086E090E00E94823460E087E090E0E5
:105640000E94823440E050E0BA0188E090E00E947D
:10565000943460E084E290E00E94823460E087E16C
:1056600090E00E94823460E08CE090E00E948234FE
:1056700060E08DE090E00E94823419821A821B82E1
:105680001C821D821E821F82188648E050E068E15D
:1056900070E0CE0101960E94723440E050E0BA0101
:1056A00080E290E00E94943480E00E94A30D0E946A
:1056B000261640E050E0BA018FE090E00E9494345A
:1056C00040E050E0BA0183E190E00E94943482E02F
:1056D00090E00E9464348093CE0284E090E00E94C7
:1056E0006C3490931B0580931A050E94C817EFEF46
:1056F000F6E721E0E150F0402040E1F700C0000073
:105700000E94C8178091EC0280FF08C06FEF7FEF06
:1057100080E090E00E94A0340E946F0B83E090E054
:105720000E9464340E94880384E091E090931E03F9
:1057300080931D0317ED412E12E0512E8091F60249
:10574000853049F48091F602853009F45CC00E94EE
:1057500055100E9499080E94C817BFECAB2EB2E00A
:10576000BB2E0CEE12E0D801F501219131918D9103
:105770009D914E165F0609F498C028173907A9F3C2
:10578000ACEE8A2EA2E09A2E312CF401E190F19039
:105790004F01D5016D907D905D016E147F0461F124
:1057A0006E247F24212CCC24C394D12CC3018C21C2
:1057B0009D21892BB9F029823A820E9453099C834A
:1057C0008B83B1E0BD8391E097012C213D21232BF8
:1057D00009F490E09E8349815A816B817C818D819F
:1057E0000E94BF262394CC0CDD1CEAE02E12DECFF3
:1057F000F5013297F182E0823394F4E03F12C5CF95
:105800000E94F50A58C08091F602843021F110926E
:10581000CC0288E190E0A0E40FB6F894A8958093BC
:1058200060000FBEA093600083B7817F846083BF58
:1058300083B7816083BF7894889583B78E7F83BF59
:105840000FB6F894A89580916000886180936000FD
:10585000109260000FBE8091CD02882309F472CFB0
:105860000E94C817ECEEF2E081919191892B29F406
:10587000B2E0E43FFB07C1F765CF80E189BD82E17B
:1058800089BD09B400FEFDCF8091D8008F7D809343
:10589000D8008091E00082608093E0008091E00079
:1058A00081FDFCCF0E9455104DCF2817390709F014
:1058B00067CF0E9401298091A1039091A203892BB7
:1058C00009F43EC04091DF025091E0026091E10294
:1058D0007091E2022FB7F8948091D7029091D8028C
:1058E000A091D902B091DA022FBF841B950BA60BB1
:1058F000B70B4091DB025091DC026091DD027091A8
:10590000DE0284179507A607B707D0F08091A103A0
:105910009091A2030E94C10F1092A2031092A103C2
:105920001092DF021092E0021092E1021092E20265
:105930001092DB021092DC021092DD021092DE0265
:10594000C090A903D090AA03C114D10409F1809199
:10595000AB039091AC030E94600B7C01C6010E94D6
:1059600016178E159F05A0F48091A9039091AA03A4
:10597000992774E0880F991F7A95E1F7FC01EE549E
:10598000FC4F208122FD04C083559C4F0E940E15C0
:1059900080911701882301F18091F2049091F30422
:1059A0000097D1F00E94600B20918504309186040D
:1059B0002817390788F490918804809187049817F4
:1059C00009F4B8C00E940D26109286041092850436
:1059D0001092F3041092F2048091110580FF1CC014
:1059E0008091160182FF18C00E945309BC0180916A
:1059F0002D0490912E049B01281B390B80910E01E0
:105A000090910F012817390738F041E080912F0459
:105A1000909130040E945F1486E0ECE8F3E0DE0130
:105A2000119601900D928A95E1F7D0908D03E09048
:105A30008E03F0908F03B0909003C090910310926A
:105A40008E0310928F0310929003109291038F2D6A
:105A50008E29882399F08091E5029091E6020E94B8
:105A6000600B9C0180918A03882309F46CC04091EB
:105A7000130150E04217530708F473C08C2D8B2993
:105A8000882399F08091E3029091E4020E94600BD8
:105A90009C0180918903882309F49CC040911101E5
:105AA00050E04217530708F4A3C080918D038D1175
:105AB00016C080918E03882311F08E1110C0909132
:105AC0008F03992311F09F110AC020919103211196
:105AD00006C020919003211102C0892B81110E94E0
